{
  "contractName": "DeedsUnit",
  "abi": [
    {
      "anonymous": false,
      "inputs": [
        {
          "indexed": true,
          "name": "lat",
          "type": "string"
        }
      ],
      "name": "geoChanged",
      "type": "event"
    },
    {
      "constant": false,
      "inputs": [
        {
          "name": "_latitue",
          "type": "string"
        }
      ],
      "name": "createGeoLocation",
      "outputs": [
        {
          "name": "",
          "type": "uint256"
        }
      ],
      "payable": false,
      "stateMutability": "nonpayable",
      "type": "function"
    },
    {
      "constant": true,
      "inputs": [],
      "name": "getGelocation",
      "outputs": [
        {
          "name": "",
          "type": "string"
        }
      ],
      "payable": false,
      "stateMutability": "view",
      "type": "function"
    }
  ],
  "bytecode": "0x608060405234801561001057600080fd5b506103e4806100206000396000f3fe60806040526004361061004c576000357c0100000000000000000000000000000000000000000000000000000000900463ffffffff1680639017eb5e146100515780639545d4381461012d575b600080fd5b34801561005d57600080fd5b506101176004803603602081101561007457600080fd5b810190808035906020019064010000000081111561009157600080fd5b8201836020820111156100a357600080fd5b803590602001918460018302840111640100000000831117156100c557600080fd5b91908080601f016020809104026020016040519081016040528093929190818152602001838380828437600081840152601f19601f8201169050808301925050505050505091929192905050506101bd565b6040518082815260200191505060405180910390f35b34801561013957600080fd5b50610142610271565b6040518080602001828103825283818151815260200191508051906020019080838360005b83811015610182578082015181840152602081019050610167565b50505050905090810190601f1680156101af5780820380516001836020036101000a031916815260200191505b509250505060405180910390f35b600081600090805190602001906101d5929190610313565b50600060405180828054600181600116156101000203166002900480156102335780601f10610211576101008083540402835291820191610233565b820191906000526020600020905b81548152906001019060200180831161021f575b505091505060405180910390207f67d0acf1b0a43335c2388da97418b57a7426db26a726a64101f282a4b1c22f2560405160405180910390a2919050565b606060008054600181600116156101000203166002900480601f0160208091040260200160405190810160405280929190818152602001828054600181600116156101000203166002900480156103095780601f106102de57610100808354040283529160200191610309565b820191906000526020600020905b8154815290600101906020018083116102ec57829003601f168201915b5050505050905090565b828054600181600116156101000203166002900490600052602060002090601f016020900481019282601f1061035457805160ff1916838001178555610382565b82800160010185558215610382579182015b82811115610381578251825591602001919060010190610366565b5b50905061038f9190610393565b5090565b6103b591905b808211156103b1576000816000905550600101610399565b5090565b9056fea165627a7a7230582055a8da3f4985c2b75c57e8a1e0081d83de0bb2ae6addfa363bc9f6e212ad05350029",
  "source": "pragma solidity ^0.5.0;\n\ncontract DeedsUnit{\n\n   string latitude;\n\n    event geoChanged(string indexed lat);\n    \n    function createGeoLocation (string memory _latitue)public returns(uint){\n        latitude = _latitue;\n        emit geoChanged(latitude);\n        \n    }\n    function getGelocation () public view returns(string memory){\n        return latitude;\n    }\n}",
  "sourcePath": "/Users/chandlerdekock/OneDrive - University of Cape Town/FinTech/Finacial Technology and Cryptocurrencies/DeedsProject/contracts/Deeds.sol",
  "compiler": {
    "name": "solc",
    "version": "0.5.0+commit.1d4f565a.Emscripten.clang"
  },
  "schemaVersion": "3.0.3",
  "updatedAt": "2019-07-16T19:30:31.754Z",
  "devdoc": {
    "methods": {}
  },
  "userdoc": {
    "methods": {}
  }
}