{
  "contractName": "titleDeeds",
  "abi": [
    {
      "constant": true,
      "inputs": [
        {
          "name": "",
          "type": "uint256"
        }
      ],
      "name": "users",
      "outputs": [
        {
          "name": "name",
          "type": "string"
        },
        {
          "name": "last_name",
          "type": "string"
        },
        {
          "name": "userAddress",
          "type": "address"
        },
        {
          "name": "IDhash",
          "type": "string"
        }
      ],
      "payable": false,
      "stateMutability": "view",
      "type": "function"
    },
    {
      "constant": true,
      "inputs": [
        {
          "name": "",
          "type": "uint256"
        }
      ],
      "name": "properties",
      "outputs": [
        {
          "name": "erfNumber",
          "type": "uint256"
        },
        {
          "name": "geoloc",
          "type": "string"
        },
        {
          "name": "ownerIDnumber",
          "type": "uint256"
        }
      ],
      "payable": false,
      "stateMutability": "view",
      "type": "function"
    },
    {
      "constant": false,
      "inputs": [
        {
          "name": "_name",
          "type": "string"
        },
        {
          "name": "_last_name",
          "type": "string"
        },
        {
          "name": "_IDhash",
          "type": "string"
        }
      ],
      "name": "registerUser",
      "outputs": [],
      "payable": false,
      "stateMutability": "nonpayable",
      "type": "function"
    },
    {
      "constant": false,
      "inputs": [
        {
          "name": "_erfNumber",
          "type": "uint256"
        },
        {
          "name": "_geoloc",
          "type": "string"
        },
        {
          "name": "_ownerIDnumber",
          "type": "uint256"
        }
      ],
      "name": "registerProperty",
      "outputs": [],
      "payable": false,
      "stateMutability": "nonpayable",
      "type": "function"
    },
    {
      "constant": false,
      "inputs": [
        {
          "name": "_propertyIDtoTransfer",
          "type": "uint256"
        },
        {
          "name": "transferTo",
          "type": "uint256"
        }
      ],
      "name": "transfer",
      "outputs": [],
      "payable": false,
      "stateMutability": "nonpayable",
      "type": "function"
    }
  ],
  "bytecode": "0x608060405234801561001057600080fd5b50610ce8806100206000396000f3fe60806040526004361061006d576000357c0100000000000000000000000000000000000000000000000000000000900463ffffffff1680630cf79e0a14610072578063365b98b2146100b75780636b6c04b614610276578063d637dcfa14610352578063f7b1080814610548575b600080fd5b34801561007e57600080fd5b506100b56004803603604081101561009557600080fd5b81019080803590602001909291908035906020019092919050505061060a565b005b3480156100c357600080fd5b506100f0600480360360208110156100da57600080fd5b81019080803590602001909291905050506106cd565b6040518080602001806020018573ffffffffffffffffffffffffffffffffffffffff1673ffffffffffffffffffffffffffffffffffffffff16815260200180602001848103845288818151815260200191508051906020019080838360005b8381101561016a57808201518184015260208101905061014f565b50505050905090810190601f1680156101975780820380516001836020036101000a031916815260200191505b50848103835287818151815260200191508051906020019080838360005b838110156101d05780820151818401526020810190506101b5565b50505050905090810190601f1680156101fd5780820380516001836020036101000a031916815260200191505b50848103825285818151815260200191508051906020019080838360005b8381101561023657808201518184015260208101905061021b565b50505050905090810190601f1680156102635780820380516001836020036101000a031916815260200191505b5097505050505050505060405180910390f35b34801561028257600080fd5b506103506004803603606081101561029957600080fd5b8101908080359060200190929190803590602001906401000000008111156102c057600080fd5b8201836020820111156102d257600080fd5b803590602001918460018302840111640100000000831117156102f457600080fd5b91908080601f016020809104026020016040519081016040528093929190818152602001838380828437600081840152601f19601f820116905080830192505050505050509192919290803590602001909291905050506108f4565b005b34801561035e57600080fd5b506105466004803603606081101561037557600080fd5b810190808035906020019064010000000081111561039257600080fd5b8201836020820111156103a457600080fd5b803590602001918460018302840111640100000000831117156103c657600080fd5b91908080601f016020809104026020016040519081016040528093929190818152602001838380828437600081840152601f19601f8201169050808301925050505050505091929192908035906020019064010000000081111561042957600080fd5b82018360208201111561043b57600080fd5b8035906020019184600183028401116401000000008311171561045d57600080fd5b91908080601f016020809104026020016040519081016040528093929190818152602001838380828437600081840152601f19601f820116905080830192505050505050509192919290803590602001906401000000008111156104c057600080fd5b8201836020820111156104d257600080fd5b803590602001918460018302840111640100000000831117156104f457600080fd5b91908080601f016020809104026020016040519081016040528093929190818152602001838380828437600081840152601f19601f8201169050808301925050505050505091929192905050506109f0565b005b34801561055457600080fd5b506105816004803603602081101561056b57600080fd5b8101908080359060200190929190505050610b46565b6040518084815260200180602001838152602001828103825284818151815260200191508051906020019080838360005b838110156105cd5780820151818401526020810190506105b2565b50505050905090810190601f1680156105fa5780820380516001836020036101000a031916815260200191505b5094505050505060405180910390f35b600060018381548110151561061b57fe5b90600052602060002090600302016002015481548110151561063957fe5b906000526020600020906004020160020160009054906101000a900473ffffffffffffffffffffffffffffffffffffffff1673ffffffffffffffffffffffffffffffffffffffff163373ffffffffffffffffffffffffffffffffffffffff161415156106a457600080fd5b806001838154811015156106b457fe5b9060005260206000209060030201600201819055505050565b6000818154811015156106dc57fe5b9060005260206000209060040201600091509050806000018054600181600116156101000203166002900480601f0160208091040260200160405190810160405280929190818152602001828054600181600116156101000203166002900480156107885780601f1061075d57610100808354040283529160200191610788565b820191906000526020600020905b81548152906001019060200180831161076b57829003601f168201915b505050505090806001018054600181600116156101000203166002900480601f0160208091040260200160405190810160405280929190818152602001828054600181600116156101000203166002900480156108265780601f106107fb57610100808354040283529160200191610826565b820191906000526020600020905b81548152906001019060200180831161080957829003601f168201915b5050505050908060020160009054906101000a900473ffffffffffffffffffffffffffffffffffffffff1690806003018054600181600116156101000203166002900480601f0160208091040260200160405190810160405280929190818152602001828054600181600116156101000203166002900480156108ea5780601f106108bf576101008083540402835291602001916108ea565b820191906000526020600020905b8154815290600101906020018083116108cd57829003601f168201915b5050505050905084565b60008181548110151561090357fe5b906000526020600020906004020160020160009054906101000a900473ffffffffffffffffffffffffffffffffffffffff1673ffffffffffffffffffffffffffffffffffffffff163373ffffffffffffffffffffffffffffffffffffffff1614151561096e57600080fd5b600160606040519081016040528085815260200184815260200183815250908060018154018082558091505090600182039060005260206000209060030201600090919290919091506000820151816000015560208201518160010190805190602001906109dd929190610c17565b5060408201518160020155505050505050565b6000600160006080604051908101604052808781526020018681526020013373ffffffffffffffffffffffffffffffffffffffff16815260200185815250908060018154018082558091505090600182039060005260206000209060040201600090919290919091506000820151816000019080519060200190610a75929190610c17565b506020820151816001019080519060200190610a92929190610c17565b5060408201518160020160006101000a81548173ffffffffffffffffffffffffffffffffffffffff021916908373ffffffffffffffffffffffffffffffffffffffff1602179055506060820151816003019080519060200190610af6929190610c17565b50505003905080600260003373ffffffffffffffffffffffffffffffffffffffff1673ffffffffffffffffffffffffffffffffffffffff1681526020019081526020016000208190555050505050565b600181815481101515610b5557fe5b9060005260206000209060030201600091509050806000015490806001018054600181600116156101000203166002900480601f016020809104026020016040519081016040528092919081815260200182805460018160011615610100020316600290048015610c075780601f10610bdc57610100808354040283529160200191610c07565b820191906000526020600020905b815481529060010190602001808311610bea57829003601f168201915b5050505050908060020154905083565b828054600181600116156101000203166002900490600052602060002090601f016020900481019282601f10610c5857805160ff1916838001178555610c86565b82800160010185558215610c86579182015b82811115610c85578251825591602001919060010190610c6a565b5b509050610c939190610c97565b5090565b610cb991905b80821115610cb5576000816000905550600101610c9d565b5090565b9056fea165627a7a723058202e4a828ff42d1b850d440682c68525344bc8d677fd2c86ad0199064ff821d1890029",
  "source": "pragma solidity ^0.5.0;\ncontract titleDeeds{\n    struct UserInfo {\n         string name;\n         string last_name;\n         address userAddress;\n         string IDhash;\n    }\n    UserInfo[] public users;\n    struct propertyIdentifier {\n       \n        uint erfNumber; //this replaces an ID #\n        string geoloc;\n        uint ownerIDnumber;\n    }\n\n    propertyIdentifier[] public properties; //array of properties made public because I have length method\n    mapping(address=> uint256) addressToUser;\n    \n    function registerUser(string memory _name, string memory _last_name, string memory _IDhash) public {\n        uint256 _id = users.push(UserInfo(_name, _last_name, msg.sender, _IDhash)) - 1; //push a new song struct to the songs array\n        addressToUser[msg.sender] = _id;\n}\n\n    function registerProperty (uint _erfNumber, string memory _geoloc, uint _ownerIDnumber) public {\n        require(msg.sender==users[_ownerIDnumber].userAddress);\n        properties.push(propertyIdentifier(_erfNumber, _geoloc, _ownerIDnumber));\n\n    }   \n    function transfer (uint _propertyIDtoTransfer, uint transferTo) public{\n        require(msg.sender==users[properties[_propertyIDtoTransfer].ownerIDnumber].userAddress);\n        properties[_propertyIDtoTransfer].ownerIDnumber = transferTo;\n    }  \n}",
  "sourcePath": "/Users/chandlerdekock/OneDrive - University of Cape Town/FinTech/Finacial Technology and Cryptocurrencies/DeedsProject/contracts/sc2.sol",
  "compiler": {
    "name": "solc",
    "version": "0.5.0+commit.1d4f565a.Emscripten.clang"
  },
  "schemaVersion": "3.0.3",
  "updatedAt": "2019-07-18T14:35:24.992Z",
  "devdoc": {
    "methods": {}
  },
  "userdoc": {
    "methods": {}
  }
}