{
  "contractName": "titleDeeds",
  "abi": [
    {
      "constant": true,
      "inputs": [
        {
          "name": "",
          "type": "uint256"
        }
      ],
      "name": "users",
      "outputs": [
        {
          "name": "name",
          "type": "string"
        },
        {
          "name": "userAddress",
          "type": "address"
        },
        {
          "name": "IDhash",
          "type": "string"
        }
      ],
      "payable": false,
      "stateMutability": "view",
      "type": "function"
    },
    {
      "constant": false,
      "inputs": [
        {
          "name": "_name",
          "type": "string"
        },
        {
          "name": "_IDhash",
          "type": "string"
        }
      ],
      "name": "registerUser",
      "outputs": [],
      "payable": false,
      "stateMutability": "nonpayable",
      "type": "function"
    },
    {
      "constant": false,
      "inputs": [
        {
          "name": "_erfNumber",
          "type": "string"
        },
        {
          "name": "_geoloc",
          "type": "string"
        }
      ],
      "name": "registerProperty",
      "outputs": [],
      "payable": false,
      "stateMutability": "nonpayable",
      "type": "function"
    },
    {
      "constant": true,
      "inputs": [],
      "name": "getProperty",
      "outputs": [
        {
          "name": "",
          "type": "string"
        },
        {
          "name": "",
          "type": "string"
        }
      ],
      "payable": false,
      "stateMutability": "view",
      "type": "function"
    },
    {
      "constant": true,
      "inputs": [],
      "name": "getUser",
      "outputs": [
        {
          "name": "",
          "type": "string"
        },
        {
          "name": "",
          "type": "string"
        }
      ],
      "payable": false,
      "stateMutability": "view",
      "type": "function"
    }
  ],
  "bytecode": "0x608060405234801561001057600080fd5b50610e68806100206000396000f3fe60806040526004361061006d576000357c0100000000000000000000000000000000000000000000000000000000900463ffffffff16806307751070146100725780631b0f8ea81461016e5780631d2e4afd146102cd578063365b98b21461042c578063832880e71461057f575b600080fd5b34801561007e57600080fd5b5061008761067b565b604051808060200180602001838103835285818151815260200191508051906020019080838360005b838110156100cb5780820151818401526020810190506100b0565b50505050905090810190601f1680156100f85780820380516001836020036101000a031916815260200191505b50838103825284818151815260200191508051906020019080838360005b83811015610131578082015181840152602081019050610116565b50505050905090810190601f16801561015e5780820380516001836020036101000a031916815260200191505b5094505050505060405180910390f35b34801561017a57600080fd5b506102cb6004803603604081101561019157600080fd5b81019080803590602001906401000000008111156101ae57600080fd5b8201836020820111156101c057600080fd5b803590602001918460018302840111640100000000831117156101e257600080fd5b91908080601f016020809104026020016040519081016040528093929190818152602001838380828437600081840152601f19601f8201169050808301925050505050505091929192908035906020019064010000000081111561024557600080fd5b82018360208201111561025757600080fd5b8035906020019184600183028401116401000000008311171561027957600080fd5b91908080601f016020809104026020016040519081016040528093929190818152602001838380828437600081840152601f19601f820116905080830192505050505050509192919290505050610846565b005b3480156102d957600080fd5b5061042a600480360360408110156102f057600080fd5b810190808035906020019064010000000081111561030d57600080fd5b82018360208201111561031f57600080fd5b8035906020019184600183028401116401000000008311171561034157600080fd5b91908080601f016020809104026020016040519081016040528093929190818152602001838380828437600081840152601f19601f820116905080830192505050505050509192919290803590602001906401000000008111156103a457600080fd5b8201836020820111156103b657600080fd5b803590602001918460018302840111640100000000831117156103d857600080fd5b91908080601f016020809104026020016040519081016040528093929190818152602001838380828437600081840152601f19601f820116905080830192505050505050509192919290505050610911565b005b34801561043857600080fd5b506104656004803603602081101561044f57600080fd5b8101908080359060200190929190505050610a43565b60405180806020018473ffffffffffffffffffffffffffffffffffffffff1673ffffffffffffffffffffffffffffffffffffffff16815260200180602001838103835286818151815260200191508051906020019080838360005b838110156104db5780820151818401526020810190506104c0565b50505050905090810190601f1680156105085780820380516001836020036101000a031916815260200191505b50838103825284818151815260200191508051906020019080838360005b83811015610541578082015181840152602081019050610526565b50505050905090810190601f16801561056e5780820380516001836020036101000a031916815260200191505b509550505050505060405180910390f35b34801561058b57600080fd5b50610594610bcc565b604051808060200180602001838103835285818151815260200191508051906020019080838360005b838110156105d85780820151818401526020810190506105bd565b50505050905090810190601f1680156106055780820380516001836020036101000a031916815260200191505b50838103825284818151815260200191508051906020019080838360005b8381101561063e578082015181840152602081019050610623565b50505050905090810190601f16801561066b5780820380516001836020036101000a031916815260200191505b5094505050505060405180910390f35b60608060006001600360003373ffffffffffffffffffffffffffffffffffffffff1673ffffffffffffffffffffffffffffffffffffffff168152602001908152602001600020540390506001818154811015156106d457fe5b90600052602060002090600202016000016001828154811015156106f457fe5b9060005260206000209060020201600101818054600181600116156101000203166002900480601f01602080910402602001604051908101604052809291908181526020018280546001816001161561010002031660029004801561079a5780601f1061076f5761010080835404028352916020019161079a565b820191906000526020600020905b81548152906001019060200180831161077d57829003601f168201915b50505050509150808054600181600116156101000203166002900480601f0160208091040260200160405190810160405280929190818152602001828054600181600116156101000203166002900480156108365780601f1061080b57610100808354040283529160200191610836565b820191906000526020600020905b81548152906001019060200180831161081957829003601f168201915b5050505050905092509250509091565b600060016040805190810160405280858152602001848152509080600181540180825580915050906001820390600052602060002090600202016000909192909190915060008201518160000190805190602001906108a6929190610d97565b5060208201518160010190805190602001906108c3929190610d97565b505050905080600360003373ffffffffffffffffffffffffffffffffffffffff1673ffffffffffffffffffffffffffffffffffffffff16815260200190815260200160002081905550505050565b6000600160006060604051908101604052808681526020013373ffffffffffffffffffffffffffffffffffffffff16815260200185815250908060018154018082558091505090600182039060005260206000209060030201600090919290919091506000820151816000019080519060200190610990929190610d97565b5060208201518160010160006101000a81548173ffffffffffffffffffffffffffffffffffffffff021916908373ffffffffffffffffffffffffffffffffffffffff16021790555060408201518160020190805190602001906109f4929190610d97565b50505003905080600260003373ffffffffffffffffffffffffffffffffffffffff1673ffffffffffffffffffffffffffffffffffffffff16815260200190815260200160002081905550505050565b600081815481101515610a5257fe5b9060005260206000209060030201600091509050806000018054600181600116156101000203166002900480601f016020809104026020016040519081016040528092919081815260200182805460018160011615610100020316600290048015610afe5780601f10610ad357610100808354040283529160200191610afe565b820191906000526020600020905b815481529060010190602001808311610ae157829003601f168201915b5050505050908060010160009054906101000a900473ffffffffffffffffffffffffffffffffffffffff1690806002018054600181600116156101000203166002900480601f016020809104026020016040519081016040528092919081815260200182805460018160011615610100020316600290048015610bc25780601f10610b9757610100808354040283529160200191610bc2565b820191906000526020600020905b815481529060010190602001808311610ba557829003601f168201915b5050505050905083565b60608060006001600260003373ffffffffffffffffffffffffffffffffffffffff1673ffffffffffffffffffffffffffffffffffffffff16815260200190815260200160002054039050600081815481101515610c2557fe5b9060005260206000209060030201600001600082815481101515610c4557fe5b9060005260206000209060030201600201818054600181600116156101000203166002900480601f016020809104026020016040519081016040528092919081815260200182805460018160011615610100020316600290048015610ceb5780601f10610cc057610100808354040283529160200191610ceb565b820191906000526020600020905b815481529060010190602001808311610cce57829003601f168201915b50505050509150808054600181600116156101000203166002900480601f016020809104026020016040519081016040528092919081815260200182805460018160011615610100020316600290048015610d875780601f10610d5c57610100808354040283529160200191610d87565b820191906000526020600020905b815481529060010190602001808311610d6a57829003601f168201915b5050505050905092509250509091565b828054600181600116156101000203166002900490600052602060002090601f016020900481019282601f10610dd857805160ff1916838001178555610e06565b82800160010185558215610e06579182015b82811115610e05578251825591602001919060010190610dea565b5b509050610e139190610e17565b5090565b610e3991905b80821115610e35576000816000905550600101610e1d565b5090565b9056fea165627a7a723058205ab1dc635797c6385ddfa03511c294b60a644164e4451d9c9995ac01473a99660029",
  "source": "pragma solidity ^0.5.0;\n\n\n\ncontract titleDeeds{\n\n    //the basic user ID\n    struct UserInfo {\n         string name;\n         address userAddress;\n         string IDhash;\n    }\n    //storee of all users\n    UserInfo[] public users;\n\n    //information of the registred property\n    struct propertyIdentifier {\n        string erfNumber;\n        string geoloc;\n    }\n    //store of all the properties\n    propertyIdentifier[] publicProperties;\n\n    //mapping of users and properties\n    mapping(address=> uint256) addressToUser;\n    mapping(address=> uint256) addressToProperty;\n\n    //the ability to register a user\n    function registerUser(string memory _name, string memory _IDhash) public {\n        uint256 _id = users.push(UserInfo(_name, msg.sender, _IDhash)) - 1;\n        addressToUser[msg.sender] = _id;\n    }\n    //ability to register a property\n    function registerProperty (string memory _erfNumber, string memory _geoloc) public {\n       // require(msg.sender==users[_ownerIDnumber].userAddress);\n        uint _id = publicProperties.push(propertyIdentifier(_erfNumber, _geoloc));\n        addressToProperty[msg.sender] = _id;\n\n    }\n    //ability to get a property given your address\n    function getProperty () public view returns (string memory, string memory) {\n        uint256 propNum = addressToProperty[msg.sender]-1;\n        return(publicProperties[propNum].erfNumber, publicProperties[propNum].geoloc);\n    }\n     //ability to get a user given your address\n     function getUser () public view returns (string memory, string memory) {\n        uint256 propNum = addressToUser[msg.sender]-1;\n        return(users[propNum].name, users[propNum].IDhash);\n    }\n}",
  "sourcePath": "/Users/chandlerdekock/OneDrive - University of Cape Town/FinTech/Finacial Technology and Cryptocurrencies/DeedsProject/contracts/sc3.sol",
  "compiler": {
    "name": "solc",
    "version": "0.5.0+commit.1d4f565a.Emscripten.clang"
  },
  "schemaVersion": "3.0.3",
  "updatedAt": "2019-07-22T18:58:14.041Z",
  "devdoc": {
    "methods": {}
  },
  "userdoc": {
    "methods": {}
  }
}