{
  "contractName": "DeedsUnit",
  "abi": [
    {
      "constant": false,
      "inputs": [
        {
          "name": "_latitue",
          "type": "string"
        }
      ],
      "name": "createGeoLocation",
      "outputs": [
        {
          "name": "",
          "type": "uint256"
        }
      ],
      "payable": false,
      "stateMutability": "nonpayable",
      "type": "function"
    }
  ],
  "bytecode": "0x608060405234801561001057600080fd5b50610259806100206000396000f3fe608060405260043610610041576000357c0100000000000000000000000000000000000000000000000000000000900463ffffffff1680639017eb5e14610046575b600080fd5b34801561005257600080fd5b5061010c6004803603602081101561006957600080fd5b810190808035906020019064010000000081111561008657600080fd5b82018360208201111561009857600080fd5b803590602001918460018302840111640100000000831117156100ba57600080fd5b91908080601f016020809104026020016040519081016040528093929190818152602001838380828437600081840152601f19601f820116905080830192505050505050509192919290505050610122565b6040518082815260200191505060405180910390f35b600080600060206040519081016040528085815250908060018154018082558091505090600182039060005260206000200160009091929091909150600082015181600001908051906020019061017a929190610188565b505050905080915050919050565b828054600181600116156101000203166002900490600052602060002090601f016020900481019282601f106101c957805160ff19168380011785556101f7565b828001600101855582156101f7579182015b828111156101f65782518255916020019190600101906101db565b5b5090506102049190610208565b5090565b61022a91905b8082111561022657600081600090555060010161020e565b5090565b9056fea165627a7a723058204ba186620f99058bcef4bd962834b7458ebec63edb83ba57c83e98f353df48420029",
  "source": "pragma solidity ^0.5.0;\n\ncontract DeedsUnit{\n\n     struct geoLocation{\n        string latitude;\n    }\n    geoLocation[] geo;\n\n    function createGeoLocation(string memory _latitue) public returns(uint){\n\n        uint index = geo.push(geoLocation(_latitue));\n        return index;\n    }\n}",
  "sourcePath": "/Users/chandlerdekock/OneDrive - University of Cape Town/FinTech/Finacial Technology and Cryptocurrencies/DeedsProject/contracts/Deeds.sol",
  "compiler": {
    "name": "solc",
    "version": "0.5.0+commit.1d4f565a.Emscripten.clang"
  },
  "schemaVersion": "3.0.3",
  "updatedAt": "2019-07-15T18:22:44.014Z",
  "devdoc": {
    "methods": {}
  },
  "userdoc": {
    "methods": {}
  }
}