{
  "contractName": "DeedsUnit",
  "abi": [
    {
      "anonymous": false,
      "inputs": [
        {
          "indexed": true,
          "name": "lat",
          "type": "string"
        }
      ],
      "name": "geoChanged",
      "type": "event"
    },
    {
      "constant": false,
      "inputs": [
        {
          "name": "_latitue",
          "type": "string"
        }
      ],
      "name": "createGeoLocation",
      "outputs": [],
      "payable": false,
      "stateMutability": "nonpayable",
      "type": "function"
    },
    {
      "constant": true,
      "inputs": [],
      "name": "getGelocation",
      "outputs": [
        {
          "name": "",
          "type": "string"
        }
      ],
      "payable": false,
      "stateMutability": "view",
      "type": "function"
    }
  ],
  "bytecode": "0x608060405234801561001057600080fd5b506103cc806100206000396000f3fe60806040526004361061004c576000357c0100000000000000000000000000000000000000000000000000000000900463ffffffff1680639017eb5e146100515780639545d43814610119575b600080fd5b34801561005d57600080fd5b506101176004803603602081101561007457600080fd5b810190808035906020019064010000000081111561009157600080fd5b8201836020820111156100a357600080fd5b803590602001918460018302840111640100000000831117156100c557600080fd5b91908080601f016020809104026020016040519081016040528093929190818152602001838380828437600081840152601f19601f8201169050808301925050505050505091929192905050506101a9565b005b34801561012557600080fd5b5061012e610259565b6040518080602001828103825283818151815260200191508051906020019080838360005b8381101561016e578082015181840152602081019050610153565b50505050905090810190601f16801561019b5780820380516001836020036101000a031916815260200191505b509250505060405180910390f35b80600090805190602001906101bf9291906102fb565b506000604051808280546001816001161561010002031660029004801561021d5780601f106101fb57610100808354040283529182019161021d565b820191906000526020600020905b815481529060010190602001808311610209575b505091505060405180910390207f67d0acf1b0a43335c2388da97418b57a7426db26a726a64101f282a4b1c22f2560405160405180910390a250565b606060008054600181600116156101000203166002900480601f0160208091040260200160405190810160405280929190818152602001828054600181600116156101000203166002900480156102f15780601f106102c6576101008083540402835291602001916102f1565b820191906000526020600020905b8154815290600101906020018083116102d457829003601f168201915b5050505050905090565b828054600181600116156101000203166002900490600052602060002090601f016020900481019282601f1061033c57805160ff191683800117855561036a565b8280016001018555821561036a579182015b8281111561036957825182559160200191906001019061034e565b5b509050610377919061037b565b5090565b61039d91905b80821115610399576000816000905550600101610381565b5090565b9056fea165627a7a723058205a7c430d1ee02c7262adc69cd0caf1157050db2bc8d817b20af4c1c310314bc50029",
  "source": "pragma solidity ^0.5.0;\n\ncontract DeedsUnit{\n\n   string latitude;\n\n    event geoChanged(string indexed lat);\n    \n    function createGeoLocation (string memory _latitue)public{\n        latitude = _latitue;\n        emit geoChanged(latitude);\n        \n    }\n    function getGelocation () public view returns(string memory){\n        return latitude;\n    }\n}",
  "sourcePath": "/Users/chandlerdekock/OneDrive - University of Cape Town/FinTech/Finacial Technology and Cryptocurrencies/DeedsProject/contracts/Deeds.sol",
  "compiler": {
    "name": "solc",
    "version": "0.5.0+commit.1d4f565a.Emscripten.clang"
  },
  "schemaVersion": "3.0.3",
  "updatedAt": "2019-07-18T14:35:24.992Z",
  "devdoc": {
    "methods": {}
  },
  "userdoc": {
    "methods": {}
  }
}