{
  "contractName": "DeedsUnit",
  "abi": [
    {
      "constant": true,
      "inputs": [],
      "name": "geohash",
      "outputs": [
        {
          "name": "",
          "type": "string"
        }
      ],
      "payable": false,
      "stateMutability": "view",
      "type": "function"
    },
    {
      "constant": true,
      "inputs": [],
      "name": "registry_address",
      "outputs": [
        {
          "name": "",
          "type": "address"
        }
      ],
      "payable": false,
      "stateMutability": "view",
      "type": "function"
    },
    {
      "constant": true,
      "inputs": [
        {
          "name": "",
          "type": "uint256"
        }
      ],
      "name": "ownerhistory",
      "outputs": [
        {
          "name": "",
          "type": "address"
        }
      ],
      "payable": false,
      "stateMutability": "view",
      "type": "function"
    },
    {
      "constant": true,
      "inputs": [],
      "name": "owner",
      "outputs": [
        {
          "name": "",
          "type": "address"
        }
      ],
      "payable": false,
      "stateMutability": "view",
      "type": "function"
    },
    {
      "constant": true,
      "inputs": [],
      "name": "ownertransfercount",
      "outputs": [
        {
          "name": "",
          "type": "uint256"
        }
      ],
      "payable": false,
      "stateMutability": "view",
      "type": "function"
    },
    {
      "inputs": [
        {
          "name": "_owner",
          "type": "address"
        },
        {
          "name": "_geohash",
          "type": "string"
        }
      ],
      "payable": false,
      "stateMutability": "nonpayable",
      "type": "constructor"
    },
    {
      "constant": false,
      "inputs": [
        {
          "name": "_addressLine1",
          "type": "string"
        },
        {
          "name": "_addressLine2",
          "type": "string"
        },
        {
          "name": "_addressLine3",
          "type": "string"
        },
        {
          "name": "_city",
          "type": "string"
        },
        {
          "name": "_region",
          "type": "string"
        },
        {
          "name": "_postCode",
          "type": "uint256"
        }
      ],
      "name": "createStreetAddress",
      "outputs": [
        {
          "name": "",
          "type": "uint256"
        }
      ],
      "payable": false,
      "stateMutability": "nonpayable",
      "type": "function"
    }
  ],
  "bytecode": "0x608060405234801561001057600080fd5b50604051610b73380380610b738339810180604052604081101561003357600080fd5b8101908080519060200190929190805164010000000081111561005557600080fd5b8281019050602081018481111561006b57600080fd5b815185600182028301116401000000008211171561008857600080fd5b5050929190505050816000806101000a81548173ffffffffffffffffffffffffffffffffffffffff021916908373ffffffffffffffffffffffffffffffffffffffff16021790555060016000809054906101000a900473ffffffffffffffffffffffffffffffffffffffff1690806001815401808255809150509060018203906000526020600020016000909192909190916101000a81548173ffffffffffffffffffffffffffffffffffffffff021916908373ffffffffffffffffffffffffffffffffffffffff1602179055505033600460006101000a81548173ffffffffffffffffffffffffffffffffffffffff021916908373ffffffffffffffffffffffffffffffffffffffff16021790555080600290805190602001906101ae9291906101b6565b50505061025b565b828054600181600116156101000203166002900490600052602060002090601f016020900481019282601f106101f757805160ff1916838001178555610225565b82800160010185558215610225579182015b82811115610224578251825591602001919060010190610209565b5b5090506102329190610236565b5090565b61025891905b8082111561025457600081600090555060010161023c565b5090565b90565b6109098061026a6000396000f3fe608060405260043610610078576000357c0100000000000000000000000000000000000000000000000000000000900463ffffffff16806308e44f881461007d5780632dceee2e1461010d578063335d1be71461016457806382a79afa146104a65780638da5cb5b14610521578063dabf5f9e14610578575b600080fd5b34801561008957600080fd5b506100926105a3565b6040518080602001828103825283818151815260200191508051906020019080838360005b838110156100d25780820151818401526020810190506100b7565b50505050905090810190601f1680156100ff5780820380516001836020036101000a031916815260200191505b509250505060405180910390f35b34801561011957600080fd5b50610122610641565b604051808273ffffffffffffffffffffffffffffffffffffffff1673ffffffffffffffffffffffffffffffffffffffff16815260200191505060405180910390f35b34801561017057600080fd5b50610490600480360360c081101561018757600080fd5b81019080803590602001906401000000008111156101a457600080fd5b8201836020820111156101b657600080fd5b803590602001918460018302840111640100000000831117156101d857600080fd5b91908080601f016020809104026020016040519081016040528093929190818152602001838380828437600081840152601f19601f8201169050808301925050505050505091929192908035906020019064010000000081111561023b57600080fd5b82018360208201111561024d57600080fd5b8035906020019184600183028401116401000000008311171561026f57600080fd5b91908080601f016020809104026020016040519081016040528093929190818152602001838380828437600081840152601f19601f820116905080830192505050505050509192919290803590602001906401000000008111156102d257600080fd5b8201836020820111156102e457600080fd5b8035906020019184600183028401116401000000008311171561030657600080fd5b91908080601f016020809104026020016040519081016040528093929190818152602001838380828437600081840152601f19601f8201169050808301925050505050505091929192908035906020019064010000000081111561036957600080fd5b82018360208201111561037b57600080fd5b8035906020019184600183028401116401000000008311171561039d57600080fd5b91908080601f016020809104026020016040519081016040528093929190818152602001838380828437600081840152601f19601f8201169050808301925050505050505091929192908035906020019064010000000081111561040057600080fd5b82018360208201111561041257600080fd5b8035906020019184600183028401116401000000008311171561043457600080fd5b91908080601f016020809104026020016040519081016040528093929190818152602001838380828437600081840152601f19601f82011690508083019250505050505050919291929080359060200190929190505050610667565b6040518082815260200191505060405180910390f35b3480156104b257600080fd5b506104df600480360360208110156104c957600080fd5b81019080803590602001909291905050506107cf565b604051808273ffffffffffffffffffffffffffffffffffffffff1673ffffffffffffffffffffffffffffffffffffffff16815260200191505060405180910390f35b34801561052d57600080fd5b5061053661080d565b604051808273ffffffffffffffffffffffffffffffffffffffff1673ffffffffffffffffffffffffffffffffffffffff16815260200191505060405180910390f35b34801561058457600080fd5b5061058d610832565b6040518082815260200191505060405180910390f35b60028054600181600116156101000203166002900480601f0160208091040260200160405190810160405280929190818152602001828054600181600116156101000203166002900480156106395780601f1061060e57610100808354040283529160200191610639565b820191906000526020600020905b81548152906001019060200180831161061c57829003601f168201915b505050505081565b600460009054906101000a900473ffffffffffffffffffffffffffffffffffffffff1681565b6000600460009054906101000a900473ffffffffffffffffffffffffffffffffffffffff1673ffffffffffffffffffffffffffffffffffffffff163373ffffffffffffffffffffffffffffffffffffffff161415156106c557600080fd5b6000600560c0604051908101604052808a81526020018981526020018881526020018781526020018681526020018581525090806001815401808255809150509060018203906000526020600020906006020160009091929091909150600082015181600001908051906020019061073e929190610838565b50602082015181600101908051906020019061075b929190610838565b506040820151816002019080519060200190610778929190610838565b506060820151816003019080519060200190610795929190610838565b5060808201518160040190805190602001906107b2929190610838565b5060a0820151816005015550509050809150509695505050505050565b6001818154811015156107de57fe5b906000526020600020016000915054906101000a900473ffffffffffffffffffffffffffffffffffffffff1681565b6000809054906101000a900473ffffffffffffffffffffffffffffffffffffffff1681565b60035481565b828054600181600116156101000203166002900490600052602060002090601f016020900481019282601f1061087957805160ff19168380011785556108a7565b828001600101855582156108a7579182015b828111156108a657825182559160200191906001019061088b565b5b5090506108b491906108b8565b5090565b6108da91905b808211156108d65760008160009055506001016108be565b5090565b9056fea165627a7a72305820d82b14894c5812def84270bc78af22d16a1ffaa16da2c1f260b3825941d7703b0029",
  "source": "pragma solidity ^0.5.0;\n\n//Creates a contract that will register a Deeds Unit. A deeds unit is any form of property on which an entity has claim to\ncontract DeedsUnit {\n\n        //declares the owner of the contract - this is also the owner property\n       address public owner;\n       //historical record of the contracts owner\n       address[] public ownerhistory;\n       // stores  the geolocation of the property\n       string public geohash;\n       //the number of times the unit has been transfered\n       uint public ownertransfercount;\n       //the address which registered the contract - can be different to the owner\n       address public registry_address;\n\n        //Creates a struct of the street address- a typical street address\n        struct streetAddress {\n            string addressLine1;\n            string addressLine2;\n            string addressLine3;\n            string city;\n            string region;\n            uint postCode;\n        }\n        streetAddress[] street;\n\n        //constructs the basic information of the contract \n        //TO DO - Will need to specifiy the details\n        constructor(address _owner, string memory _geohash) public {\n        owner = _owner;\n\t\townerhistory.push(owner);\n\t\tregistry_address = msg.sender;\n        geohash = _geohash;\n    }\n\n    //function that stores the street address of the property if applicable  - only the registered address can call this function\n    function createStreetAddress(\n        string memory _addressLine1, \n        string memory _addressLine2, \n        string memory _addressLine3, \n        string memory _city, \n        string memory _region,\n        uint _postCode\n        ) public returns (uint){\n            require (msg.sender == registry_address);\n            uint index = street.push(streetAddress(_addressLine1,_addressLine2, _addressLine3, _city,_region, _postCode));\n            return index; \n        }\n}",
  "sourcePath": "/Users/chandlerdekock/OneDrive - University of Cape Town/FinTech/FTC/DeedsProject/contracts/DeedsUnit.sol",
  "compiler": {
    "name": "solc",
    "version": "0.5.0+commit.1d4f565a.Emscripten.clang"
  },
  "schemaVersion": "3.0.3",
  "updatedAt": "2019-07-10T12:21:46.313Z",
  "devdoc": {
    "methods": {}
  },
  "userdoc": {
    "methods": {}
  }
}