{
  "contractName": "Metadata",
  "abi": [
    {
      "anonymous": false,
      "inputs": [
        {
          "indexed": true,
          "name": "issuer",
          "type": "address"
        },
        {
          "indexed": true,
          "name": "subject",
          "type": "address"
        },
        {
          "indexed": true,
          "name": "key",
          "type": "bytes32"
        },
        {
          "indexed": false,
          "name": "updatedAt",
          "type": "uint256"
        }
      ],
      "name": "LinkSet",
      "type": "event"
    },
    {
      "anonymous": false,
      "inputs": [
        {
          "indexed": true,
          "name": "issuer",
          "type": "address"
        },
        {
          "indexed": true,
          "name": "subject",
          "type": "address"
        },
        {
          "indexed": true,
          "name": "key",
          "type": "bytes32"
        },
        {
          "indexed": false,
          "name": "removedAt",
          "type": "uint256"
        }
      ],
      "name": "LinkRemoved",
      "type": "event"
    },
    {
      "constant": false,
      "inputs": [
        {
          "name": "_subject",
          "type": "address"
        },
        {
          "name": "_key",
          "type": "bytes32"
        },
        {
          "name": "_multiaddr",
          "type": "string"
        }
      ],
      "name": "setLink",
      "outputs": [],
      "payable": false,
      "stateMutability": "nonpayable",
      "type": "function"
    },
    {
      "constant": true,
      "inputs": [
        {
          "name": "_subject",
          "type": "address"
        },
        {
          "name": "_key",
          "type": "bytes32"
        }
      ],
      "name": "getLink",
      "outputs": [
        {
          "name": "multiaddr",
          "type": "string"
        },
        {
          "name": "owner",
          "type": "address"
        }
      ],
      "payable": false,
      "stateMutability": "view",
      "type": "function"
    },
    {
      "constant": false,
      "inputs": [
        {
          "name": "_subject",
          "type": "address"
        },
        {
          "name": "_key",
          "type": "bytes32"
        }
      ],
      "name": "removeLink",
      "outputs": [],
      "payable": false,
      "stateMutability": "nonpayable",
      "type": "function"
    },
    {
      "constant": true,
      "inputs": [],
      "name": "getNumLinks",
      "outputs": [
        {
          "name": "",
          "type": "uint256"
        }
      ],
      "payable": false,
      "stateMutability": "view",
      "type": "function"
    }
  ],
  "bytecode": "0x608060405234801561001057600080fd5b50610d04806100206000396000f3fe608060405260043610610062576000357c0100000000000000000000000000000000000000000000000000000000900463ffffffff168063277240a8146100675780634888634c146100925780639648822514610184578063c56ef25f1461028b575b600080fd5b34801561007357600080fd5b5061007c6102e6565b6040518082815260200191505060405180910390f35b34801561009e57600080fd5b50610182600480360360608110156100b557600080fd5b81019080803573ffffffffffffffffffffffffffffffffffffffff16906020019092919080359060200190929190803590602001906401000000008111156100fc57600080fd5b82018360208201111561010e57600080fd5b8035906020019184600183028401116401000000008311171561013057600080fd5b91908080601f016020809104026020016040519081016040528093929190818152602001838380828437600081840152601f19601f8201169050808301925050505050505091929192905050506102f2565b005b34801561019057600080fd5b506101dd600480360360408110156101a757600080fd5b81019080803573ffffffffffffffffffffffffffffffffffffffff169060200190929190803590602001909291905050506105aa565b60405180806020018373ffffffffffffffffffffffffffffffffffffffff1673ffffffffffffffffffffffffffffffffffffffff168152602001828103825284818151815260200191508051906020019080838360005b8381101561024f578082015181840152602081019050610234565b50505050905090810190601f16801561027c5780820380516001836020036101000a031916815260200191505b50935050505060405180910390f35b34801561029757600080fd5b506102e4600480360360408110156102ae57600080fd5b81019080803573ffffffffffffffffffffffffffffffffffffffff16906020019092919080359060200190929190505050610719565b005b60008080549050905090565b6102fa610ae2565b60408051908101604052808381526020013373ffffffffffffffffffffffffffffffffffffffff16815250905080600160008673ffffffffffffffffffffffffffffffffffffffff1673ffffffffffffffffffffffffffffffffffffffff16815260200190815260200160002060008581526020019081526020016000206000820151816000019080519060200190610394929190610b12565b5060208201518160010160006101000a81548173ffffffffffffffffffffffffffffffffffffffff021916908373ffffffffffffffffffffffffffffffffffffffff160217905550905050600080548091906001016103f39190610b92565b506000600260008673ffffffffffffffffffffffffffffffffffffffff1673ffffffffffffffffffffffffffffffffffffffff168152602001908152602001600020805490509050600260008673ffffffffffffffffffffffffffffffffffffffff1673ffffffffffffffffffffffffffffffffffffffff168152602001908152602001600020805480919060010161048c9190610bc4565b5083600260008773ffffffffffffffffffffffffffffffffffffffff1673ffffffffffffffffffffffffffffffffffffffff168152602001908152602001600020828154811015156104da57fe5b906000526020600020018190555080600360008773ffffffffffffffffffffffffffffffffffffffff1673ffffffffffffffffffffffffffffffffffffffff168152602001908152602001600020600086815260200190815260200160002081905550838573ffffffffffffffffffffffffffffffffffffffff163373ffffffffffffffffffffffffffffffffffffffff167f6d74bcd1ed00c4835f4780aad33c463cbaf3a8fff0e0cd6a7c32b395af76dbcb426040518082815260200191505060405180910390a45050505050565b60606000600160008573ffffffffffffffffffffffffffffffffffffffff1673ffffffffffffffffffffffffffffffffffffffff16815260200190815260200160002060008481526020019081526020016000206000018054600181600116156101000203166002900480601f0160208091040260200160405190810160405280929190818152602001828054600181600116156101000203166002900480156106955780601f1061066a57610100808354040283529160200191610695565b820191906000526020600020905b81548152906001019060200180831161067857829003601f168201915b50505050509150600160008573ffffffffffffffffffffffffffffffffffffffff1673ffffffffffffffffffffffffffffffffffffffff168152602001908152602001600020600084815260200190815260200160002060010160009054906101000a900473ffffffffffffffffffffffffffffffffffffffff1690509250929050565b600160008373ffffffffffffffffffffffffffffffffffffffff1673ffffffffffffffffffffffffffffffffffffffff168152602001908152602001600020600082815260200190815260200160002060010160009054906101000a900473ffffffffffffffffffffffffffffffffffffffff1673ffffffffffffffffffffffffffffffffffffffff163373ffffffffffffffffffffffffffffffffffffffff161415156107c657600080fd5b600160008373ffffffffffffffffffffffffffffffffffffffff1673ffffffffffffffffffffffffffffffffffffffff1681526020019081526020016000206000828152602001908152602001600020600080820160006108279190610bf0565b6001820160006101000a81549073ffffffffffffffffffffffffffffffffffffffff0219169055505060008054809190600190036108659190610b92565b506000600360008473ffffffffffffffffffffffffffffffffffffffff1673ffffffffffffffffffffffffffffffffffffffff168152602001908152602001600020600083815260200190815260200160002054905060008190505b6001600260008673ffffffffffffffffffffffffffffffffffffffff1673ffffffffffffffffffffffffffffffffffffffff16815260200190815260200160002080549050038110156109cf57600260008573ffffffffffffffffffffffffffffffffffffffff1673ffffffffffffffffffffffffffffffffffffffff1681526020019081526020016000206001820181548110151561095d57fe5b9060005260206000200154600260008673ffffffffffffffffffffffffffffffffffffffff1673ffffffffffffffffffffffffffffffffffffffff168152602001908152602001600020828154811015156109b457fe5b906000526020600020018190555080806001019150506108c1565b50600260008473ffffffffffffffffffffffffffffffffffffffff1673ffffffffffffffffffffffffffffffffffffffff168152602001908152602001600020805480919060019003610a229190610bc4565b50600360008473ffffffffffffffffffffffffffffffffffffffff1673ffffffffffffffffffffffffffffffffffffffff168152602001908152602001600020600083815260200190815260200160002060009055818373ffffffffffffffffffffffffffffffffffffffff163373ffffffffffffffffffffffffffffffffffffffff167fd9d23893eea65c3cd050c642c2c7a7ed35f6886577859db8d2d05aabf7a635c8426040518082815260200191505060405180910390a4505050565b604080519081016040528060608152602001600073ffffffffffffffffffffffffffffffffffffffff1681525090565b828054600181600116156101000203166002900490600052602060002090601f016020900481019282601f10610b5357805160ff1916838001178555610b81565b82800160010185558215610b81579182015b82811115610b80578251825591602001919060010190610b65565b5b509050610b8e9190610c38565b5090565b815481835581811115610bbf57600202816002028360005260206000209182019101610bbe9190610c5d565b5b505050565b815481835581811115610beb57818360005260206000209182019101610bea9190610cb3565b5b505050565b50805460018160011615610100020316600290046000825580601f10610c165750610c35565b601f016020900490600052602060002090810190610c349190610c38565b5b50565b610c5a91905b80821115610c56576000816000905550600101610c3e565b5090565b90565b610cb091905b80821115610cac5760008082016000610c7c9190610bf0565b6001820160006101000a81549073ffffffffffffffffffffffffffffffffffffffff021916905550600201610c63565b5090565b90565b610cd591905b80821115610cd1576000816000905550600101610cb9565b5090565b9056fea165627a7a7230582067e3cb1030ebad1955a33737595fd33adfb0ffdf7ac5e54ad6e3706ce39cc2e50029",
  "source": "pragma solidity ^0.5.0;\n//pragma experimental ABIEncoderV2;\n\n//creates records of the metadata linked to the property\ncontract Metadata{\n\n\tstruct Link{\n\t\tstring multiaddr;\n\t\taddress owner;\n\t}\n    //array if all lionks \n    Link[] numLinks;\n    //internal mapping of the data types\n\tmapping(address => mapping(bytes32 => Link)) internal registry;\n\tmapping(address => bytes32[]) internal subjectKeys;\n\tmapping(address => mapping(bytes32 => uint)) internal subjectKeysIndex;\n\n    //creates events for links being added\n\tevent LinkSet(\n\t\taddress indexed issuer,\n\t\taddress indexed subject,\n\t\tbytes32 indexed key,\n\t\tuint updatedAt\n\t);\n    //creates events for links being removed\n\tevent LinkRemoved(\n\t\taddress indexed issuer,\n\t\taddress indexed subject,\n\t\tbytes32 indexed key,\n\t\tuint removedAt\n\t);\n    //creates a new metadata link\n\tfunction setLink(address _subject, bytes32 _key, string memory _multiaddr) public {\n\t\tLink memory newLink = Link(_multiaddr, msg.sender);\n\t\tregistry[_subject][_key] = newLink;\n\t\tnumLinks.length++;\n\t\t\n\t\tuint olen = subjectKeys[_subject].length;\n\t\tsubjectKeys[_subject].length++;\n\t\tsubjectKeys[_subject][olen] = _key;\n\t\tsubjectKeysIndex[_subject][_key] = olen;\n\n\t\temit LinkSet(msg.sender, _subject, _key, now);\t\t\n\t}\n    //allows retrival of the link\n\tfunction getLink(address _subject, bytes32 _key) public view returns (string memory multiaddr, address owner) {\n\t\tmultiaddr = registry[_subject][_key].multiaddr;\n\t\towner = registry[_subject][_key].owner;\n\t}\n\t//can remove the link\n\tfunction removeLink(address _subject, bytes32 _key) public {\n\t\trequire(msg.sender == registry[_subject][_key].owner);\n\t\tdelete registry[_subject][_key];\n\t\tnumLinks.length--;\n\t\tuint keyIndex = subjectKeysIndex[_subject][_key];\n\t\tfor (uint i = keyIndex; i < subjectKeys[_subject].length-1; i++){\n\t\t\tsubjectKeys[_subject][i] = subjectKeys[_subject][i+1];\n\t\t}\n\t\t// removal of line below saves 5000 gas\n\t\t// delete subjectKeys[_subject][subjectKeys[_subject].length-1];\n\t\tsubjectKeys[_subject].length--;\n\t\tdelete subjectKeysIndex[_subject][_key];\n\t\temit LinkRemoved(msg.sender, _subject, _key, now);\n\t}\n\t// return number of links attributed to a particular SpatialUnit\n\tfunction getNumLinks()public view returns (uint){\n\t\treturn numLinks.length;\n\t}\n}\n",
  "sourcePath": "/Users/chandlerdekock/OneDrive - University of Cape Town/FinTech/FTC/DeedsProject/contracts/metadata.sol",
  "compiler": {
    "name": "solc",
    "version": "0.5.0+commit.1d4f565a.Emscripten.clang"
  },
  "schemaVersion": "3.0.3",
  "updatedAt": "2019-07-10T12:21:46.311Z",
  "devdoc": {
    "methods": {}
  },
  "userdoc": {
    "methods": {}
  }
}