{
  "contractName": "RightsRegistry",
  "abi": [
    {
      "constant": false,
      "inputs": [
        {
          "name": "targetEntity",
          "type": "address"
        },
        {
          "name": "holderEntity",
          "type": "address"
        },
        {
          "name": "rightsType",
          "type": "string"
        }
      ],
      "name": "addRight",
      "outputs": [],
      "payable": false,
      "stateMutability": "nonpayable",
      "type": "function"
    },
    {
      "constant": true,
      "inputs": [],
      "name": "getNumRights",
      "outputs": [
        {
          "name": "",
          "type": "uint256"
        }
      ],
      "payable": false,
      "stateMutability": "view",
      "type": "function"
    }
  ],
  "bytecode": "0x608060405234801561001057600080fd5b506107fc806100206000396000f3fe60806040526004361061004c576000357c0100000000000000000000000000000000000000000000000000000000900463ffffffff168063d9ce2a6f14610051578063fe24e4251461007c575b600080fd5b34801561005d57600080fd5b50610066610184565b6040518082815260200191505060405180910390f35b34801561008857600080fd5b506101826004803603606081101561009f57600080fd5b81019080803573ffffffffffffffffffffffffffffffffffffffff169060200190929190803573ffffffffffffffffffffffffffffffffffffffff169060200190929190803590602001906401000000008111156100fc57600080fd5b82018360208201111561010e57600080fd5b8035906020019184600183028401116401000000008311171561013057600080fd5b91908080601f016020809104026020016040519081016040528093929190818152602001838380828437600081840152601f19601f820116905080830192505050505050509192919290505050610190565b005b60008080549050905090565b600080805490509050600080548091906001016101ad919061055e565b50836000828154811015156101be57fe5b906000526020600020906008020160010160006101000a81548173ffffffffffffffffffffffffffffffffffffffff021916908373ffffffffffffffffffffffffffffffffffffffff1602179055508260008281548110151561021d57fe5b906000526020600020906008020160000160006101000a81548173ffffffffffffffffffffffffffffffffffffffff021916908373ffffffffffffffffffffffffffffffffffffffff1602179055508160008281548110151561027c57fe5b906000526020600020906008020160020190805190602001906102a0929190610590565b506000600160008573ffffffffffffffffffffffffffffffffffffffff1673ffffffffffffffffffffffffffffffffffffffff168152602001908152602001600020805490509050600160008573ffffffffffffffffffffffffffffffffffffffff1673ffffffffffffffffffffffffffffffffffffffff1681526020019081526020016000208054809190600101610339919061055e565b5060008281548110151561034957fe5b9060005260206000209060080201600160008673ffffffffffffffffffffffffffffffffffffffff1673ffffffffffffffffffffffffffffffffffffffff168152602001908152602001600020828154811015156103a357fe5b90600052602060002090600802016000820160009054906101000a900473ffffffffffffffffffffffffffffffffffffffff168160000160006101000a81548173ffffffffffffffffffffffffffffffffffffffff021916908373ffffffffffffffffffffffffffffffffffffffff1602179055506001820160009054906101000a900473ffffffffffffffffffffffffffffffffffffffff168160010160006101000a81548173ffffffffffffffffffffffffffffffffffffffff021916908373ffffffffffffffffffffffffffffffffffffffff160217905550600282018160020190805460018160011615610100020316600290046104a6929190610610565b506003820160009054906101000a900473ffffffffffffffffffffffffffffffffffffffff168160030160006101000a81548173ffffffffffffffffffffffffffffffffffffffff021916908373ffffffffffffffffffffffffffffffffffffffff16021790555060048201816004019080546001816001161561010002031660029004610535929190610610565b506005820154816005015560068201548160060155600782015481600701559050505050505050565b81548183558181111561058b5760080281600802836000526020600020918201910161058a9190610697565b5b505050565b828054600181600116156101000203166002900490600052602060002090601f016020900481019282601f106105d157805160ff19168380011785556105ff565b828001600101855582156105ff579182015b828111156105fe5782518255916020019190600101906105e3565b5b50905061060c9190610763565b5090565b828054600181600116156101000203166002900490600052602060002090601f016020900481019282601f106106495780548555610686565b8280016001018555821561068657600052602060002091601f016020900482015b8281111561068557825482559160010191906001019061066a565b5b5090506106939190610763565b5090565b61076091905b8082111561075c57600080820160006101000a81549073ffffffffffffffffffffffffffffffffffffffff02191690556001820160006101000a81549073ffffffffffffffffffffffffffffffffffffffff02191690556002820160006107049190610788565b6003820160006101000a81549073ffffffffffffffffffffffffffffffffffffffff021916905560048201600061073b9190610788565b6005820160009055600682016000905560078201600090555060080161069d565b5090565b90565b61078591905b80821115610781576000816000905550600101610769565b5090565b90565b50805460018160011615610100020316600290046000825580601f106107ae57506107cd565b601f0160209004906000526020600020908101906107cc9190610763565b5b5056fea165627a7a723058203032dba92991104e3d80081c2834e6ee05004f60c58d0d1881ec5b958ba3b3100029",
  "source": "pragma solidity ^0.5.0;\n\n//dthe  types of right a proprty holder can have. This would have helpful when morgages, rental contracts or any other transfer duty is done\ncontract RightsRegistry {\n\n    struct Right {\n    \taddress holderEntity;\n    \taddress targetEntity;\n    \tstring rightsType;\n    \taddress rightsContract;\n    \tstring infoUrl;\n    \tuint status;\n        uint startTime;\n        uint expireTime;\n    }\n    // stores the type of rights the holder of the accounts can have.\n    Right[] rights;\n    mapping(address => Right[]) indexedByHolderEntity;\n    mapping(address => Right[]) indexedByRightsContract;\n\n    function addRight(address targetEntity, address holderEntity, string memory rightsType) public {\n    \t// Check that the rightsType for targetEntity isn't already taken \n\n        uint len = rights.length;\n\t\trights.length++;\n\t\trights[len].targetEntity = targetEntity;\n        rights[len].holderEntity = holderEntity;\n        rights[len].rightsType   = rightsType;\n\n        uint olen = indexedByHolderEntity[holderEntity].length;\n        indexedByHolderEntity[holderEntity].length++;\n        indexedByHolderEntity[holderEntity][olen] = rights[len];\n    }\n    //returns the length of the rights\n    function getNumRights() public view returns (uint) {\n        return rights.length;\n    }\n    //returns the particular right type\n    // function getRightAt(uint rightIndex) public view \n    // returns (\n    // \taddress holderEntity,\n    // \taddress targetEntity,\n    // \tstring memory rightsType,\n    // \taddress rightsContract,\n    // \tstring memory infoUrl,\n    // \tuint status,\n    //     uint startTime,\n    //     uint expireTime\n\t// ) \n    // {\n    //     holderEntity = rights[rightIndex].holderEntity;\n    //     targetEntity = rights[rightIndex].targetEntity;\n    //     rightsType = rights[rightIndex].rightsType;\n    //     rightsContract = rights[rightIndex].rightsContract;\n    //     infoUrl = rights[rightIndex].infoUrl;\n    //     status = rights[rightIndex].status;\n    //     startTime = rights[rightIndex].startTime;\n    //     expireTime = rights[rightIndex].expireTime;\n    // }\n}\n",
  "sourcePath": "/Users/chandlerdekock/OneDrive - University of Cape Town/FinTech/FTC/DeedsProject/contracts/Rights.sol",
  "compiler": {
    "name": "solc",
    "version": "0.5.0+commit.1d4f565a.Emscripten.clang"
  },
  "schemaVersion": "3.0.3",
  "updatedAt": "2019-07-10T12:27:25.423Z",
  "devdoc": {
    "methods": {}
  },
  "userdoc": {
    "methods": {}
  }
}